{
  "contractName": "CourseCtr",
  "abi": [
    {
      "inputs": [],
      "stateMutability": "nonpayable",
      "type": "constructor"
    },
    {
      "anonymous": false,
      "inputs": [
        {
          "indexed": false,
          "internalType": "address",
          "name": "",
          "type": "address"
        },
        {
          "indexed": false,
          "internalType": "address",
          "name": "",
          "type": "address"
        },
        {
          "indexed": false,
          "internalType": "uint256",
          "name": "",
          "type": "uint256"
        },
        {
          "indexed": false,
          "internalType": "uint256",
          "name": "",
          "type": "uint256"
        }
      ],
      "name": "buyCourseEvent",
      "type": "event"
    },
    {
      "anonymous": false,
      "inputs": [
        {
          "indexed": false,
          "internalType": "address",
          "name": "",
          "type": "address"
        },
        {
          "indexed": false,
          "internalType": "uint256",
          "name": "",
          "type": "uint256"
        }
      ],
      "name": "createCourseEvent",
      "type": "event"
    },
    {
      "inputs": [
        {
          "internalType": "uint256",
          "name": "",
          "type": "uint256"
        }
      ],
      "name": "CourseList",
      "outputs": [
        {
          "internalType": "address",
          "name": "creator",
          "type": "address"
        },
        {
          "internalType": "uint256",
          "name": "courseId",
          "type": "uint256"
        }
      ],
      "stateMutability": "view",
      "type": "function",
      "constant": true
    },
    {
      "inputs": [
        {
          "internalType": "address",
          "name": "",
          "type": "address"
        },
        {
          "internalType": "uint256",
          "name": "",
          "type": "uint256"
        }
      ],
      "name": "CourseUser",
      "outputs": [
        {
          "internalType": "address",
          "name": "creator",
          "type": "address"
        },
        {
          "internalType": "uint256",
          "name": "courseId",
          "type": "uint256"
        }
      ],
      "stateMutability": "view",
      "type": "function",
      "constant": true
    },
    {
      "inputs": [],
      "name": "owner",
      "outputs": [
        {
          "internalType": "address",
          "name": "",
          "type": "address"
        }
      ],
      "stateMutability": "view",
      "type": "function",
      "constant": true
    },
    {
      "inputs": [
        {
          "internalType": "uint256",
          "name": "courseId",
          "type": "uint256"
        }
      ],
      "name": "createCourse",
      "outputs": [],
      "stateMutability": "nonpayable",
      "type": "function"
    },
    {
      "inputs": [
        {
          "internalType": "uint256",
          "name": "courseId",
          "type": "uint256"
        }
      ],
      "name": "deleteCourse",
      "outputs": [],
      "stateMutability": "nonpayable",
      "type": "function"
    },
    {
      "inputs": [
        {
          "internalType": "uint256",
          "name": "courseId",
          "type": "uint256"
        }
      ],
      "name": "buyCourse",
      "outputs": [],
      "stateMutability": "payable",
      "type": "function",
      "payable": true
    }
  ],
  "bytecode": "0x608060405234801561001057600080fd5b50336000806101000a81548173ffffffffffffffffffffffffffffffffffffffff021916908373ffffffffffffffffffffffffffffffffffffffff16021790555061078b806100606000396000f3fe6080604052600436106100555760003560e01c8063194d73a21461005a5780632e339646146100765780633039c5021461009f5780635b818b31146100dd5780638da5cb5b1461011b5780639dad8d2214610146575b600080fd5b610074600480360381019061006f9190610595565b61016f565b005b34801561008257600080fd5b5061009d60048036038101906100989190610595565b6102be565b005b3480156100ab57600080fd5b506100c660048036038101906100c19190610555565b61038c565b6040516100d4929190610663565b60405180910390f35b3480156100e957600080fd5b5061010460048036038101906100ff9190610595565b6103ed565b604051610112929190610663565b60405180910390f35b34801561012757600080fd5b50610130610431565b60405161013d9190610603565b60405180910390f35b34801561015257600080fd5b5061016d60048036038101906101689190610595565b610455565b005b6000600260008381526020019081526020016000206040518060400160405290816000820160009054906101000a900473ffffffffffffffffffffffffffffffffffffffff1673ffffffffffffffffffffffffffffffffffffffff1673ffffffffffffffffffffffffffffffffffffffff1681526020016001820154815250509050806000015173ffffffffffffffffffffffffffffffffffffffff163373ffffffffffffffffffffffffffffffffffffffff16141561022e57600080fd5b806000015173ffffffffffffffffffffffffffffffffffffffff166108fc349081150290604051600060405180830381858888f19350505050158015610278573d6000803e3d6000fd5b507f966d8a36810f1a4fcaf2f15351309df91694ef7b4d628b0b04c04a94adefd90733826000015184346040516102b2949392919061061e565b60405180910390a15050565b60405180604001604052803373ffffffffffffffffffffffffffffffffffffffff168152602001828152506002600083815260200190815260200160002060008201518160000160006101000a81548173ffffffffffffffffffffffffffffffffffffffff021916908373ffffffffffffffffffffffffffffffffffffffff160217905550602082015181600101559050507ff1ba2f0c6eccdf971690fe310e06a2d8a21ecd2a26f482a06af309b7a5b16ca03382604051610381929190610663565b60405180910390a150565b600160205281600052604060002081815481106103a857600080fd5b9060005260206000209060020201600091509150508060000160009054906101000a900473ffffffffffffffffffffffffffffffffffffffff16908060010154905082565b60026020528060005260406000206000915090508060000160009054906101000a900473ffffffffffffffffffffffffffffffffffffffff16908060010154905082565b60008054906101000a900473ffffffffffffffffffffffffffffffffffffffff1681565b60008054906101000a900473ffffffffffffffffffffffffffffffffffffffff1673ffffffffffffffffffffffffffffffffffffffff163373ffffffffffffffffffffffffffffffffffffffff16146104e3576040517f08c379a00000000000000000000000000000000000000000000000000000000081526004016104da9061068c565b60405180910390fd5b60026000828152602001908152602001600020600080820160006101000a81549073ffffffffffffffffffffffffffffffffffffffff02191690556001820160009055505050565b60008135905061053a81610727565b92915050565b60008135905061054f8161073e565b92915050565b6000806040838503121561056c5761056b6106f9565b5b600061057a8582860161052b565b925050602061058b85828601610540565b9150509250929050565b6000602082840312156105ab576105aa6106f9565b5b60006105b984828501610540565b91505092915050565b6105cb816106bd565b82525050565b60006105de601e836106ac565b91506105e9826106fe565b602082019050919050565b6105fd816106ef565b82525050565b600060208201905061061860008301846105c2565b92915050565b600060808201905061063360008301876105c2565b61064060208301866105c2565b61064d60408301856105f4565b61065a60608301846105f4565b95945050505050565b600060408201905061067860008301856105c2565b61068560208301846105f4565b9392505050565b600060208201905081810360008301526106a5816105d1565b9050919050565b600082825260208201905092915050565b60006106c8826106cf565b9050919050565b600073ffffffffffffffffffffffffffffffffffffffff82169050919050565b6000819050919050565b600080fd5b7f4f6e6c7920616c6c6f77206f776e65722063726561746520636f757273650000600082015250565b610730816106bd565b811461073b57600080fd5b50565b610747816106ef565b811461075257600080fd5b5056fea26469706673582212203b9e13ec9bff92adbf7aea63dfb75ed84c5d0e38722b4ddfa6f99685224ef04464736f6c63430008070033",
  "immutableReferences": {},
  "source": "// SPDX-License-Identifier: MIT\r\npragma solidity ^0.8.7;\r\n\r\ncontract CourseCtr {\r\n    address public owner;\r\n    mapping(address => Course[]) public CourseUser;\r\n    mapping(uint => Course) public CourseList;\r\n\r\n    struct Course {\r\n        address creator;\r\n        uint courseId;\r\n    }\r\n\r\n    constructor() {\r\n        owner = msg.sender;\r\n    }\r\n\r\n    modifier isOwner() {\r\n        require (msg.sender == owner, \"Only allow owner create course\");\r\n        _;\r\n    }\r\n\r\n    event createCourseEvent(address, uint);\r\n    function createCourse(uint courseId) public {\r\n        CourseList[courseId] = Course(msg.sender, courseId);\r\n\r\n        emit createCourseEvent(msg.sender, courseId);\r\n    }\r\n\r\n    function deleteCourse(uint courseId) public isOwner {\r\n        delete CourseList[courseId];\r\n    }\r\n\r\n    event buyCourseEvent(address, address, uint, uint);\r\n    function buyCourse(uint courseId) public payable {\r\n        Course memory course = CourseList[courseId];\r\n        require(msg.sender != course.creator);\r\n        payable(course.creator).transfer(msg.value);\r\n\r\n        emit buyCourseEvent(msg.sender, course.creator, courseId, msg.value);\r\n    }\r\n}",
  "sourcePath": "D:\\Research\\blockchain\\course\\client\\contracts\\CourseCtr.sol",
  "compiler": {
    "name": "solc",
    "version": "0.8.7+commit.e28d00a7.Emscripten.clang"
  },
  "schemaVersion": "3.4.6",
  "updatedAt": "2022-03-31T16:45:17.109Z",
  "networkType": "ethereum",
  "devdoc": {
    "kind": "dev",
    "methods": {},
    "version": 1
  },
  "userdoc": {
    "kind": "user",
    "methods": {},
    "version": 1
  }
}